:100000000C9468010C94AF010C94AF010C94AF01F7
:100010000C94AF010C94AF010C94AF010C94AF01A0
:100020000C94AF010C94AF010C940E1C0C94E01CCA
:100030000C943C170C94AF010C94AF010C94AF01DD
:100040000C94AF010C94AF010C94AF010C94AF0170
:100050000C94AF010C9495170C94AF010C94AF0164
:100060000C94AF010C94AF010C94AF010C94AF0150
:100070000C94AF010C94AF010C94AF010C94AF0140
:100080000C94AF010C94AF010C94AF010C94AF0130
:100090000C94AF010C94AF010C94AF010C94AF0120
:1000A0000C94AF010C94AF010C94AF01810D810D44
:1000B000B30DB30D000E1E0E320F320F290EC20EFD
:1000C000D30ED30ED20FD20FE40FE40FDB0FE40FE9
:1000D000E40FE40FD20FD20FE00FE40FE40FE00FB4
:1000E0004D1D741D6C1E741D6C1EC01DE31D6C1E09
:1000F0003A1E491E1E002000220024002600720025
:100100002D002A00000035001A0015001C000C000C
:100110001300330028000000E000040007000A007C
:100120000D000F0030004F0000002900E1001B000F
:100130001900110036003800510000002C001D008D
:100140000600050010003700E5003A000000E3005B
:10015000160009000B000E002F002E003C000000CE
:1001600014000800170018001200310034003E008F
:1001700000001F00210023002500270073004A0013
:10018000400000000000000000000000000000002F
:10019000000000002B0016035400680065004300B7
:1001A000360034004D0069006E0069000000140341
:1001B000480061006E00730020004C00690073006D
:1001C000730000000403090409023B00020100A0BF
:1001D000FA090400000103010100092111010001D5
:1001E0002240000705810308000A090401000103F9
:1001F000000000092111010001227B000705820394
:1002000020000A1201100100000008EFBEADDE015F
:10021000000102000105010902A10185020901A1F5
:1002200000050919012908150025019508750181A6
:10023000020501093009311581257F950275088174
:100240000609381581257F950175088106050C0A78
:1002500038021581257F950175088106C0C005010A
:100260000980A101850319012AB700150126B700ED
:10027000950175108100C0050C0901A101850419C3
:10028000012AA002150126A002950175108100C067
:1002900005010906A101050719E029E71500250157
:1002A00095087501810295017508810105071900FE
:1002B00029FF150026FF009506750881000508191D
:1002C000012905950575019102950175039101C0FC
:1002D00011241FBECFEFDAE0DEBFCDBF04B603FEB0
:1002E00027C08091890290918A02A0918B02B091DF
:1002F0008C028730904BA740B04BD1F4109289020A
:1003000010928A0210928B0210928C0214BE84B753
:10031000877F84BF0FB6F894A895809160008861AC
:1003200080936000109260000FBEE0E0F8E3099552
:1003300011E0A0E0B1E0E4E2FEE302C005900D921E
:10034000AA38B107D9F722E0AAE8B1E001C01D92AE
:10035000A938B207E1F70E9448190C94101F0C94B9
:10036000000081E0089581E008950C94B1010895A2
:100370000C94B7011F93CF93DF9300D000D01F924E
:10038000CDB7DEB749835A836B833091C101898130
:100390009A81311114C0662359F0222349F00E943A
:1003A0008E14182F682F89819A810E94371403C0F8
:1003B0000E946214182F69817A81812F04C00E94E3
:1003C0008E1469817A810F900F900F900F900F908B
:1003D000DF91CF911F910C947902FC01262F40816F
:1003E00051816281738184810C94BA01CF93DF9330
:1003F000EC0160E00E94ED01BE01DF91CF910C9411
:10040000B8010E947D040C94BA040C94B6040895BB
:100410000E94C00F0E9407022FEF84E39CE021504E
:1004200080409040E1F700C000000C94BB170F9390
:100430001F93CF93DF938C0161E00E94ED01EC01EB
:10044000B8010E94B5018823F1F1B801CE010E94E4
:10045000D7088823C1F1B801CE010E942909882359
:1004600091F1B801CE010E94540A882361F1F8018C
:100470008281882309F1CB358DE5D807C1F050F48E
:10048000C115FCE5DF0781F0CF3DDC45A9F40E94F2
:10049000921619C0CC35EDE5DE0761F0CD35DD45AE
:1004A00059F40E94211508C00E9408020CC00E9445
:1004B0002A1502C00E942D15C801DF91CF911F910E
:1004C0000F910C94B30180E0DF91CF911F910F91B8
:1004D000089508950C94690281E008950C946C02CB
:1004E000CF93C82F0E946A028C2F0E946E02CF9178
:1004F000089521E5829FC0011124FC0129E0729F2B
:10050000E00DF11D1124E60FF11DEE0FFF1FEC5061
:10051000FF4F859194910895CF93DF930E947902C4
:100520000E948E03EC01811521E5920708F043C07B
:10053000811540E5940708F08AC0883E910520F5B2
:10054000803E910508F0E6C0883A910570F4853A3E
:10055000910508F074C08130910509F4DBC008F4FE
:10056000D7C0049708F0D6C0D3C08F3B910508F0E0
:10057000CFC0C85AD0E0CC0FDD1FCB5EDE4F099054
:10058000D881C02DD464C6C0C11580E2D80758F404
:10059000C11521E0D20708F0BDC0CD3ED10508F459
:1005A000B7C0D065B7C0C11540E4D40708F4B0C0E7
:1005B000DF70D06AAFC0C11585E5D807A0F4C115BA
:1005C00024E5D20708F08AC0C11543E5D40708F036
:1005D0006FC0C11582E5D80708F054C0DC2FCC27C6
:1005E000C16FD06A97C0C11529E5D207A0F4C11523
:1005F00048E5D40708F077C0C11586E5D80708F0AC
:1006000087C08C2F0E9422048F71C82FD0E0DC2F6E
:10061000CC27D0627FC0C1152AE5D20708F468C094
:10062000CE0190568115904208F072C08D2F8F71C7
:100630000E942204DD27D0628F71D82B6BC0C55A6F
:10064000D0E0CD5BDE4FC881D0E0D06463C074E001
:10065000969587957A95E1F783709C2F937021E0AA
:1006600030E002C0220F331F9A95E2F73C68382B26
:10067000CF70C695C69580E2C89FE0011124C22BB9
:10068000D32B48C0CE018370992721E030E002C00F
:10069000220F331F8A95E2F78C2F8695869540E2CC
:1006A000849FC0011124E901C82BD92BDC6832C01A
:1006B000CE018370992721E030E002C0220F331F62
:1006C0008A95E2F78C2F8695869540E2849FC0013B
:1006D0001124E901C82BD92BDA681CC0DC2FCC27E8
:1006E000C46FD06A17C0DC2FCC27C06FD06A12C08D
:1006F0008C2F8F700E94220494E0D695C7959A950E
:10070000E1F7CF70D0E0DC2FCC27D069C82B02C036
:10071000C0E0D0E0CE01DF91CF91089582389105FD
:1007200069F1B0F48133910509F46DC048F4893260
:10073000910509F463C08A32910509F469C00895EE
:100740008533910509F455C089339105B9F00895B1
:10075000833E910569F138F4803E9105B1F0823E07
:10076000910509F10895863E9105A9F1873E91050D
:10077000B9F1843E910509F064C023C02091520272
:1007800020FD4FC021FD4DC008958091520280FD93
:1007900044C08091530280FF44C08091520284FD86
:1007A00042C083EE4DC08091520282FF38C0F5CF27
:1007B0008091520282FD33C08091530280FD31C08E
:1007C000ECCF8091530281FF32C08091520284FDB0
:1007D0002AC087EE35C08091520283FF26C0F5CF34
:1007E0008091520283FD21C08091530281FD1FC080
:1007F000ECCF8091520285FD1CC01DC08091520239
:1008000085FD19C016C08091520286FD16C017C022
:100810008091520286FD13C010C089E311C082EEA0
:100820000FC080EE0DC080E00BC086EE09C084EEE4
:1008300007C089E205C085E303C08AE201C081E305
:1008400090E008959091520292FF0DC0282F2871D8
:10085000283019F4877F846006C0282F2471243043
:1008600011F48B7F886093FF0DC0282F28712831E9
:1008700019F4877E846106C0282F2471243111F475
:100880008B7E88612091530220FF0DC0382F387174
:10089000383019F4877F816006C0382F31713130CC
:1008A00011F48E7F886021FF0DC0282F2871283118
:1008B00019F4877E816106C0282F2171213111F43E
:1008C0008E7E886194FD877E08950C94E4150E94C5
:1008D000FB048FE39CE90197F1F700C000000E9440
:1008E000FB0480E00E94A10480FF04C00E94650414
:1008F0000C94BB1708950C9467040E94EA158111AB
:1009000002C00E9492160E94F515809346020E9432
:10091000FD1590935302809352020E947B040E9423
:10092000F915682F70E080E090E00E943913609123
:1009300031027091320280913302909134020C9412
:100940007113E82FF0E0EE0FFF1FEA59FD4F808191
:1009500091810895089580EA8A95F1F7089500C07D
:1009600008950C94AB0408950C94B3040C94B4044F
:100970000C94B3040C94B804F894E82FE295EF704B
:10098000F0E031A1282F2F7081E090E001C0880FA6
:100990002A95EAF7982F9095932391A392A1892BFA
:1009A00082A378940895CF93DF93C6E4D1E0899130
:1009B0000E94BC0481E0CF34D807C9F7CFE4D1E06E
:1009C00089910E94BC0481E0C835D807C9F7E4E5E5
:1009D000F2E0A6E6B2E086E692E0119211921D9254
:1009E0001D928E179F07C9F789E00E949605DF9137
:1009F000CF910C9401024F925F927F928F929F92BF
:100A0000AF92BF92CF92DF92EF92FF920F931F931C
:100A1000CF93DF9396E4E92E91E0F92E00E010E009
:100A2000C0E0CC24C394D12C36E6A32E32E0B32E02
:100A30004701D7018C91F894E82FE295EF70F0E030
:100A400021A18F70A60102C0440F551F8A95E2F7BD
:100A5000CA01922F982B91A392A18095892382A3FA
:100A600078940E94AF04A601002E02C0440F551FC7
:100A70000A94E2F7BA0160957095E4E5F2E08FE43C
:100A8000482E81E0582ED0E020813181D2017D9026
:100A90002D01872D82958F7090E0DC0190968C91CE
:100AA00090E0B72DBF7002C095958795BA95E2F793
:100AB00080FD04C0C901842B952B03C0C901862386
:100AC00097232817390719F091838083D1E0329654
:100AD000AE16BF06C9F6EFEFEE1AFE0AD4018C91EE
:100AE0000E94BC040E94B104CD2B0F5F1F4F093040
:100AF000110509F09DCF2C2F49E066E672E084E5F0
:100B000092E00E9497050E9405028C2FDF91CF9101
:100B10001F910F91FF90EF90DF90CF90BF90AF901B
:100B20009F908F907F905F904F9008950895FF92CF
:100B30000F931F93CF93DF93F82E092F162FD72FE4
:100B4000C42F222349F081E080938E010E946E170A
:100B500090938D0180938C0180918E018823D9F030
:100B600080918C0190918D010E948617069798F0D4
:100B7000EF2DF02FA12FBD2F80E090E04C2F50E003
:100B80008417950734F4219131912D933D9301966B
:100B9000F7CF10928E01DF91CF911F910F91FF90AF
:100BA00008958091950180FF0BC06091050185E05B
:100BB000689FB001112475956795759567952BC051
:100BC00081FF09C06091050185E0689FB001112493
:100BD0007595679520C082FF07C06091050185E08B
:100BE000689FB001112417C0909194019923D1F00E
:100BF00060910401961788F72091050185E0289FF0
:100C000090011124929FA001939F500D112470E038
:100C1000CA010E94A01E6038710540F4611571057B
:100C200019F406C065E070E0862F08958FE70895F7
:100C300081E008958091950180FF08C060910101D5
:100C400070E0759567957595679521C081FF06C021
:100C50006091010170E07595679519C082FF04C02D
:100C60006091010170E010C090919301992399F077
:100C7000609100019617A0F780910101899FC00142
:100C8000112470E00E94A01E6038710540F46115C7
:100C9000710519F406C061E070E0862F08958FE7B2
:100CA000089581E008958D3E21F40E94D10581953B
:100CB00004C08E3E29F40E94D105809399010895C5
:100CC0008F3E21F40E94D105819504C0803F29F414
:100CD0000E94D105809398010895893F19F40E94DC
:100CE0001A0605C08A3F31F40E941A068195809346
:100CF0009A0108958B3F21F40E941A06819504C041
:100D00008C3F29F40E941A0680939B0108959FE06E
:100D1000980F983078F421E030E0A90102C0440F28
:100D2000551F9A95E2F7CA0190919701892B8093FC
:100D3000970108958D3F21F48091950181600BC04A
:100D40008E3F21F480919501826005C08F3F29F488
:100D50008091950184608093950108958D3E39F4CA
:100D60009091990197FF35C01092990159C08E3E1C
:100D700029F4909199011916BCF32BC09091980118
:100D80008F3E29F497FF25C01092980149C0803FFB
:100D900019F41916CCF31DC090919A01893F29F4DA
:100DA0001916BCF410929A013BC08A3F19F497FFC0
:100DB00010C0F8CF8B3F39F490919B0197FF09C089
:100DC00010929B012DC08C3F21F490919B0119162C
:100DD000BCF39FE0980F983080F421E030E0A90147
:100DE00002C0440F551F9A95E2F7CA018095909171
:100DF000970189238093970113C08D3F21F480913F
:100E000095018E7F0BC08E3F21F4809195018D7FDF
:100E100005C08F3F29F4809195018B7F80939501C8
:100E200080919801811106C080919901811102C0C1
:100E30001092940180919A01811106C080919B01CA
:100E4000811102C01092930108950E946E172091A3
:100E50009801211104C020919901222321F090933F
:100E600092018093910120919A01211104C0209157
:100E70009B01222321F09093900180938F0186E9BA
:100E800091E00C94A10AEF92FF920F931F93CF93DE
:100E9000DF9300D000D000D0CDB7DEB786E0E6E922
:100EA000F1E0DE01119601900D928A95E1F7E09054
:100EB0009801F090990100919A0110919B01109274
:100EC00098011092990110929A0110929B01E110E1
:100ED00003C0FF2009F45DC08091910190919201BF
:100EE0000E948617AC0190919401992339F02091CA
:100EF000060130E02417350758F04BC02091070158
:100F00008AE0289F900111242417350718F041C06A
:100F10009F3F19F09F5F90939401EE2061F00E9433
:100F2000D1051E1414F09FEF01C091E0989F902D01
:100F3000112490939801FF2061F00E94D1051F14A5
:100F400014F09FEF01C091E0989F902D1124909391
:100F50009901309198013323E1F0209199012223E6
:100F6000C1F045EB3403C0011124992319F090938B
:100F7000980103C081E08093980135EB2303C00101
:100F80001124992319F09093990103C081E0809373
:100F90009901011103C0112309F45DC080918F01F3
:100FA000909190010E948617AC0190919301992332
:100FB00039F02091020130E02417350758F04BC07A
:100FC000209103018AE0289F9001112424173507FE
:100FD00018F041C09F3F19F09F5F90939301002349
:100FE00061F00E941A06101614F09FEF01C091E004
:100FF000989F902D112490939A01112361F00E94E3
:101000001A06111614F09FEF01C091E0989F902DE1
:10101000112490939B0130919A013323E1F02091A8
:101020009B012223C1F045EB3403C0011124992315
:1010300019F090939A0103C081E080939A0135EBF7
:101040002303C0011124992319F090939B0103C03D
:1010500081E080939B018091980181110BC0809168
:101060009901811107C080919A01811103C080917B
:101070009B0181110E942507EB82FC820D831E8358
:1010800086E0FE013196A6E9B1E001900D928A95C5
:10109000E1F726960FB6F894DEBF0FBECDBFDF9105
:1010A000CF911F910F91FF90EF900895E6E9F1E045
:1010B00086E0DF011D928A95E9F710929401109263
:1010C00093011092950108950F931F93CF93DF938F
:1010D000C42FD22FFC0182818823C9F040939E0146
:1010E0000E946E1790939D0180939C0180E28C0F6B
:1010F000883008F057C0C77081E001C0880FCA95DA
:10110000EAF7DF91CF911F910F910C943C0D8091E4
:101110009E01481330C080919C0190919D010E94D6
:101120008617883C910538F510E21D0FCD17B9F0F0
:1011300080E28C0F883040F4C77081E001C0880FD6
:10114000CA95EAF70E94430D183028F581E09D2FDB
:10115000977001C0880F9A95EAF70E943C0D802F86
:101160000E94330D1830F0F4D77081E001C0880F71
:10117000DA95EAF70AC080E28C0F883098F4C770DD
:1011800081E001C0880FCA95EAF7DF91CF911F91E6
:101190000F910C94430D802FDF91CF911F910F91F0
:1011A0000C94330DDF91CF911F910F9108950F9300
:1011B0009C01CB01243F4CE5340731F188F4293DF3
:1011C000FCE53F07D9F02A3D4CE5340779F1283D8D
:1011D0003C45A9F506E221EE41EE68ED7CE52BC029
:1011E000263FFCE53F07E1F0A8F0273F3C4539F5F5
:1011F00007E225EE46EE67EF7CE51DC007E225EE2F
:1012000045EE69ED7CE517C006E221EE40EE64EFA5
:101210007CE511C007E225EE44EE65EF7CE50BC0EE
:1012200006E221EE42EE66EF7CE505C008E221E031
:1012300045EE6AED7CE50E94640880E008C0FC0190
:101240008281882319F010929E0101C081E00F91E4
:101250000895CF93DF93EC01FB018281882309F489
:101260001FC1C230FCE5DF0708F41BC1C6319CE595
:10127000D90738F09E012B5F3C452930310508F035
:1012800010C10E94FD159093530280935202C03109
:10129000ECE5DE0709F4C3C008F041C0C8308CE5B6
:1012A000D80709F49AC0F0F4C430ECE5DE0709F47D
:1012B00087C068F4C2308CE5D80709F477C0C33022
:1012C000DC4509F0E3C080915202826076C0C630EE
:1012D000ECE5DE0709F46EC008F07BC08091520295
:1012E00088606BC0CC308CE5D80709F485C068F401
:1012F000CA30ECE5DE0709F474C008F079C00E943A
:10130000C00F80915202806858C0CE308CE5D8075B
:1013100009F476C008F07FC0809152028BC0CC3FA8
:10132000ECE5DE0709F44FC018F5C3318CE5D807AA
:1013300009F47DC078F4C131ECE5DE0709F473C02F
:10134000C231DC4509F0A2C00E94C00F8091520258
:101350008F7733C0C5318CE5D80709F472C008F423
:1013600086C0CB3FDC4509F091C0809153023EC05E
:10137000C115FDE5DF0709F45FC058F4CE3F9CE5D9
:10138000D90709F444C008F43FC080915302826039
:101390002DC0C230FDE5DF0709F475C008F45DC05B
:1013A000C330DD4509F072C080E06EC0809152020A
:1013B000816003C08091520280618093520266C0B6
:1013C0008091520211C08091530282608093530237
:1013D0005DC0809152028062F0CF809152028064A1
:1013E000ECCF8091520288608460E7CF8160EECFBD
:1013F000809152028E7FE1CF809152028D7FDDCFAE
:1014000080915202877FD9CF8091530218C080917A
:1014100053028D7FDBCF809152028F7ECECF8091A1
:1014200052028F7DCACF809152028F7BC6CF8091AE
:101430005202877F8B7FC1CF809153028D7F8E7F39
:10144000C5CF8091520282FB222720F991E092279A
:1014500090FB82F990FB83F9B0CF80915302982FD3
:10146000909591708E7F892B90FB81F9AFCF0E9470
:10147000C00F8091520287FB222720F991E092272A
:1014800090FB87F99ACF81E00E94941680915202D6
:10149000909153020E940E160E94C00F80E001C07E
:1014A00081E0DF91CF910895CF93DF9386319C4502
:1014B00041F5EB010E943015982F8A812091080197
:1014C00030910901882379F09A7A81E009F480E06B
:1014D00080939F01911102C069E201C065E3C901D7
:1014E0000E94DB160AC080919F01811102C069E24F
:1014F00001C065E3C9010E94DD160E94751580E0F8
:1015000001C081E0DF91CF9108959093A501809370
:10151000A4010895E091A401F091A501309721F074
:101520000190F081E02D099480E00895E091A401FC
:10153000F091A501309721F00280F381E02D09940C
:101540000895E091A401F091A501309739F022E0CF
:10155000DC012C930480F581E02D099408952091FD
:10156000A2013091A3012817390771F09093A301CC
:101570008093A201E091A401F091A501309721F0A0
:101580000680F781E02D099408952091A001309103
:10159000A1012817390771F09093A1018093A00150
:1015A000E091A401F091A501309721F00084F1852C
:1015B000E02D099408950E947A176093BD017093FD
:1015C000BE018093BF019093C0016093B9017093F5
:1015D000BA018093BB019093BC01089585B78068E0
:1015E00085BF85B7806885BF089581E008950C9414
:1015F000F50A08950C94F90A0C94F90A0C94FC0A63
:101600000C94F90A0C94000B0C94F90A0E94EE0A4F
:1016100082EE95E10E94DF170E94040B0C94020BEE
:101620000E94FA0A0C94F90A0E9465170E94D304DA
:101630000C94FE0A6F927F928F929F92AF92BF920C
:10164000CF92DF92EF92FF920F931F93CF93DF938E
:10165000CDB7DEB72A970FB6F894DEBF0FBECDBF69
:101660000E94FB0481110E94DB0A37EA832E31E0DD
:10167000932E00E010E0C02E802F0E94A1045C0198
:10168000F401619071904F0168267926611471040C
:10169000B1F40F5F1F4F0930110569F78FEF898390
:1016A0008A831B820E946E178160782F9D838C83B2
:1016B00049815A816B818D810E94D00B3AC0809103
:1016C000460281FD0E94AA04D12CEE24E394F12C61
:1016D000C3018E219F21892B29F10E94F70A8823BB
:1016E000A9F0DE82CF82AE20BF2081E0AB2809F4D2
:1016F00080E088870E946E178160782F9A8789879B
:101700004E815F8168858A850E94D00B000F111F72
:10171000F801E955FE4F80819181E826F926F18292
:10172000E08207C0D394EE0CFF1CF9E0DF12D0CFAB
:10173000B0CF0E9443070E948A0A9091A6018917A0
:10174000D1F00E948A0A8093A6012A960FB6F894D7
:10175000DEBF0FBECDBFDF91CF911F910F91FF90E4
:10176000EF90DF90CF90BF90AF909F908F907F9041
:101770006F900C9470022A960FB6F894DEBF0FBEDD
:10178000CDBFDF91CF911F910F91FF90EF90DF9030
:10179000CF90BF90AF909F908F907F906F90089563
:1017A000DF92EF92FF920F931F93CF93DF93CDB70A
:1017B000DEB72B970FB6F894DEBF0FBECDBFF42E69
:1017C000052F162FE72ED82E61110E945015FE010D
:1017D000319686E0DF011D928A95E9F77E2D4F2D27
:1017E000502F612F8D2D9E810E9479122B960FB65E
:1017F000F894DEBF0FBECDBFDF91CF911F910F9147
:10180000FF90EF90DF900895FC01808191810E940C
:10181000D0140895CF93882309F4A4C0C82F823828
:10182000C1F40E948A0A81FD9DC069E3809108018C
:10183000909109010E94DB160E9475152FEF81EE31
:1018400094E0215080409040E1F700C0000069E33F
:1018500019C0833801F50E948A0A80FD83C063E5C0
:1018600080910801909109010E94DB160E94751574
:101870002FEF81EE94E0215080409040E1F700C0CE
:10188000000063E580910801909109010E94DD1636
:10189000CF910C9475158438C1F40E948A0A82FD98
:1018A00061C067E480910801909109010E94DB16F4
:1018B0000E9475152FEF81EE94E0215080409040FA
:1018C000E1F700C0000067E4DDCF8CEF8C0F813AB8
:1018D000D0F46C2F80910801909109010E94A51607
:1018E000882349F06C2F80910801909109010E9492
:1018F000DD160E9475156C2F8091080190910901E9
:101900000E94DB16C5CF80E28C0F883048F4C77088
:1019100081E001C0880FCA95EAF70E943315B8CF5D
:10192000EBE5EC0FE33040F4F0E0EA57FE4F808146
:1019300090E0CF910C94AF0AE8E5EC0FE73150F45A
:10194000F0E0EE0FFF1FE85AFE4F80819181CF91AA
:101950000C94C50ACD3E30F08C2F0E945306CF91D7
:101960000C942507CF910895882309F464C0823828
:1019700079F40E948A0A81FF5EC069E380910801C0
:10198000909109010E94DB160E94751569E310C051
:101990008338B1F40E948A0A80FF4DC063E58091CC
:1019A0000801909109010E94DB160E94751563E5FC
:1019B00080910801909109010E94DD160C94751523
:1019C000843879F40E948A0A82FF35C067E48091E6
:1019D0000801909109010E94DB160E94751567E4C9
:1019E000E7CF9CEF980F913A10F4682FE1CF90E287
:1019F000980F983050F4877091E001C0990F8A9544
:101A0000EAF7892F0E943915D9CF9BE5980F9330BB
:101A100020F480E090E00C94AF0A98E5980F97319D
:101A200020F480E090E00C94C50A8D3E20F00E94E6
:101A3000AE060C94250708951F93CF93DF93182FBC
:101A4000EB010E940A0C209741F08FE99FE001977B
:101A5000F1F700C000002197F6CF812FDF91CF91E1
:101A60001F910C94B40C893319F060E070E002C04F
:101A700060E570E00C941C0D882321F00E94331562
:101A80000C9475150895882321F00E9439150C9443
:101A900075150895CF92DF92EF92FF920F931F93E7
:101AA000CF93DF937C01D62FC72FFC0112810581D4
:101AB00002950F700E940815882399F0112389F070
:101AC0008C2F807F803421F080E28D0F883048F0A9
:101AD00082E00E94C5150E94081591E0D82ED926F3
:101AE00001C0D12CCC2EC2948FE0C8228C2D90E066
:101AF0008C30910508F0B6C1FC01EA5AFF4F0C94F6
:101B0000B41E8C2F807FCF70882311F0C295C07FC8
:101B1000112399F0CC2309F491C180E28D0F883014
:101B200010F0D11104C08C2F0E94331503C08C2FEC
:101B30000E9443150E94751581C18D2F0E94B40C1F
:101B4000CC2309F48FC180E28D0F883010F0D111C1
:101B500004C08C2F0E94391503C08C2F0E94491598
:101B60000E9475157FC18C2F807FCF70803211F05D
:101B7000C295C07FDD2319F0D130C9F022C01123F6
:101B800071F0002341F0013031F40E9456158C2B86
:101B90000E945E1567C10E9456158C2B1DC0002344
:101BA00019F0013009F45EC10E946B1525C01123A4
:101BB00021F0063008F056C10EC0053008F052C1C1
:101BC0001BC0112361F0002331F0F701858180FFF4
:101BD00035C18F7085838C2F0E943C0D43C100233B
:101BE00059F0D93309F03BC1FFEF07EE13E0F15094
:101BF00000401040E1F731C18C2F0E94430D32C1EB
:101C00008C2F86958695837019F0813061F02AC1FA
:101C1000112321F08D2F9C2F937002C080E090E063
:101C20000E94AF0A27C1112321F08D2F9C2F9370A2
:101C300002C080E090E00E94C50A1CC18D2F1123D4
:101C400019F00E94530602C00E94AE060E942507AA
:101C500011C18C2F837009F047C0111107C12D2FBE
:101C6000229526952770220F220F6D2F6F70862FD9
:101C700090E0A0E0B0E0022E04C0880F991FAA1FD8
:101C8000BB1F0A94D2F7D4FF10C04FE050E060E0D1
:101C900070E004C0440F551F661F771F2A95D2F7C6
:101CA000409550956095709503C040E050E0BA01B2
:101CB000C695C695C3708A019B01082B192B2A2B48
:101CC0003B2BC901B801C23049F058F4C13019F0BA
:101CD0000E944D13CBC00E943B13C8C00E945F13EB
:101CE000C5C00E943913C2C0112319F08C2F817016
:101CF00001C08695882309F4B9C02D2F2295269519
:101D00002770220F220F6D2F6F70862F90E0A0E0BA
:101D1000B0E0022E04C0880F991FAA1FBB1F0A94AF
:101D2000D2F7D4FF10C04FE050E060E070E004C094
:101D3000440F551F661F771F2A95D2F7409550957F
:101D40006095709503C040E050E0BA01C695C69515
:101D5000C3708A019B01082B192B2A2B3B2BC9012D
:101D6000B801C23049F058F4C13019F00E94121481
:101D70007DC00E9400147AC00E94241477C00E9483
:101D8000731374C0CF70112339F08C2F0E949913F4
:101D90008D2F0E943C0D6AC08D2F0E94430D8C2F09
:101DA0000E94BA1363C0D23F01F128F4D03F41F042
:101DB000D13FA1F03FC0D33FF9F0D43F39F13AC051
:101DC000112341F0053008F04DC08C2F8F710E9417
:101DD000DF1348C0063008F045C0F7CF112339F0B3
:101DE0008C2F8F710E9499133DC01123C9F38C2F42
:101DF0008F710E94BA1336C0112329F08C2F8F7176
:101E00000E9484132FC00E947F132CC0112349F01D
:101E1000CF718C2F0E94991363E08C2F0E94AA151A
:101E200021C081E00E94C5150230E0F082E00E94EE
:101E3000C51518C0112331F0002391F28D2F0E9497
:101E40000A0C10C0002399F2D93349F41FEF27EE92
:101E500033E0115020403040E1F700C000008D2FEA
:101E60000E94B40C88EF8C0D843020F40E948A0A02
:101E70000E947002DD20C9F00E94041580FD15C08B
:101E8000F70112820E94FE140E949913C7010E945A
:101E9000760F0E94FE14DF91CF911F910F91FF905A
:101EA000EF90DF90CF900C94BA13DF91CF911F91F8
:101EB0000F91FF90EF90DF90CF9008950F931F93B5
:101EC000CF93DF93EC01688179818A810E94DB14D2
:101ED0008C010E9436140E942713B801CE010E9483
:101EE0004A0DDF91CF911F910F910895CF93DF930A
:101EF000EC01988189812B813C81232B31F08F3F2C
:101F000031F481E09F3F19F403C081E001C080E01B
:101F100080FD19C0CE010E94170281110CC00E94E1
:101F20000815882381F08A81882369F082E0DF9197
:101F3000CF910C94C515CE010E945E0FCE01DF91AA
:101F4000CF910C94F601DF91CF91089580E090E05D
:101F50000E94AF0A80E090E00E94C50A0E945015DE
:101F60000E9453150E9475150E9456080C9425076F
:101F700080910801909109010E94DF160C94A60F30
:101F80000E9440150C94B80FE92FE295EF704E2F88
:101F900050E0FA013297EE30F105B0F4EE59FF4F00
:101FA0000C94B41E803F91F018F4883E68F40EC083
:101FB000843F51F40BC0883E48F0813F29F406C0AD
:101FC00093FB882780F9089580E0089581E00895C3
:101FD0000E94D0140E94C40F0895CF93DF9300D0C5
:101FE00000D01F92CDB7DEB70F900F900F900F90DB
:101FF0000F90DF91CF910895CF93DF9300D000D061
:1020000000D0CDB7DEB726960FB6F894DEBF0FBE70
:10201000CDBFDF91CF9108951F93CF93DF93C091F0
:10202000C20116E08091C301C81799F0D0E01C9F4F
:10203000F0011D9FF00D1124EC53FE4F40815181A2
:1020400062817381848195810E94FC0F2196C77003
:10205000E9CFDF91CF911F9108954091F401509104
:10206000F5016091F6017091F7018091F80190916E
:10207000F9010C94FC0F0F931F93CF93DF93809182
:10208000F90182958F7009F05DC08091F601882377
:1020900009F458C08091C2011091C3016091F4010C
:1020A0007091F501C091F701D091F80191E06F3F77
:1020B00009F090E0292F06E0811709F443C020972A
:1020C00021F07F3F21F030E003C031E001C0322F2A
:1020D00090E030FD34C0089FF001099FF00D1124FD
:1020E000DF01AC53BE4F11963C911197371327C0B7
:1020F0003C91361324C012963C91129731111FC0A7
:1021000013964D915C9114974C1B5D0B483C510507
:10211000B0F48091F9018F7080618093F901E753E9
:10212000FE4F80818F708061808384EF91E00E94F8
:10213000760FDF91CF911F910F910C940C100196A7
:102140008770BACFDF91CF911F910F9108959F9221
:10215000AF92BF92CF92DF92EF92FF920F931F93B5
:10216000CF93DF93CDB7DEB761970FB6F894DEBF9C
:102170000FBECDBF8C0185E0F801DE011D960190F8
:102180000D928A95E1F7F80140815181E2809091AA
:10219000F4016091F5012091F7013091F8012115CA
:1021A000310531F06F3F31F481E09F3F19F403C0F6
:1021B00081E001C080E0F82FF1709F2E80FD46C1C4
:1021C000F801A380B48084EFC82E81E0D82EF0906F
:1021D000F601F501E21BF30BFF2009F4DFC080914B
:1021E000F901E83CF10508F09BC0282F207F09F099
:1021F00052C0561313C0491311C0FE2CE1100EC07B
:102200008F7080618093F9010E942D10C6010E9499
:10221000760F8091F901F801858358C1AB2831F020
:102220005F3F31F481E04F3F19F403C081E001C00A
:1022300080E080FD03C081E08E2502C080E090E058
:10224000F82FF170FF2E80FF1CC08091C2012091F9
:10225000C30136E0821709F417C190E0389FF001FE
:10226000399FF00D1124EC53FE4F6181561306C0C7
:102270006081461303C06281E61203C00196877035
:10228000E9CFFE2CEE2009F421C18091F901816093
:102290008093F9015AC0561306C0491304C0E110D7
:1022A00002C0F8019FC04D875E878D859E850E9484
:1022B000E80F882379F1EE2069F12091F901822F4E
:1022C00082958F7090E0029774F08091F401909164
:1022D000F50198878F831986BB86AA862C87CE0145
:1022E00007960E94760F86E0F801A4EFB1E0019016
:1022F0000D928A95E1F70E943B100E942D100DC0AF
:10230000561729F14D875E878D859E850E94E80FBF
:1023100081112CC0C8010E94760FFF24F394D6C00F
:10232000282F207F69F77A2DB98AA88A6E2D89898E
:102330000E94ED0F84EF91E00E94760F86E0F60197
:1023400011928A95E9F70E942D10F12CBFC0491314
:10235000D9CFE110D7CFF8018583C8010E94760F4D
:1023600086E0F60111928A95E9F7B0C0EE2091F26D
:102370002091F901822F82958F7090E002970CF4E2
:10238000B2CF8091F4019091F5019A8389831B82E9
:10239000BD82AC822E83CE010196A3CFE83CF1052D
:1023A00008F047C0FE2CEE2009F4B4CF561330C01D
:1023B00049132EC02091F90120FD21C0822F829562
:1023C0008F70482F50E041155105C9F0F801258361
:1023D0004F30510541F08F5F982F9295907F822F5B
:1023E0008F70892B8583C8010E94760F86E0F801E3
:1023F000A4EFB1E001900D928A95E1F742C086E02A
:10240000F801A4EFB1E001900D928A95E1F75EC06A
:102410004D875E878D859E850E94E80F811163CF71
:102420008091F90181608093F901C8010E94760FC3
:102430004DC07A2DB98AA88A6E2D89890E94ED0F28
:1024400086E0F60111928A95E9F71BC0EE2009F4A7
:1024500061CF4D875E878D859E850E94E80FF82E9F
:10246000882309F457CF86E0F801A4EFB1E001908A
:102470000D928A95E1F784EF91E00E94040C0E948E
:102480003B100E942D1022C04D875E878D859E8552
:102490000E94D014292F22952F70223028F49F708B
:1024A00039F0811105C00BC0243028F49F7049F425
:1024B000805E883020F0C8010E94760F9F2CF92C96
:1024C00005C0F8019581907F99F7F9CF8F2D61961E
:1024D0000FB6F894DEBF0FBECDBFDF91CF911F9135
:1024E0000F91FF90EF90DF90CF90BF90AF909F90B3
:1024F00008951F93CF93DF93CDB7DEB72C970FB618
:10250000F894DEBF0FBECDBF4F83588769877A87A7
:102510008B879C87CE0107960E94A7108823D1F055
:102520009F8188852A853B85232B31F08F3F31F4AD
:1025300081E09F3F19F403C081E001C080E080FD8D
:1025400047C04F81588569857A858B859C850E9417
:10255000FC0F3EC086E0FE013796DE011196019029
:102560000D928A95E1F7FF81E8856A857B85611583
:10257000710531F0EF3F31F481E0FF3F19F403C002
:1025800081E001C080E080FD23C02091C30130E0E4
:10259000C9010196877099274091C20150E08417C4
:1025A0009507F1F1F983EA837D836C8396E0929F2E
:1025B000D001939FB00D1124AC53BE4FFE01319654
:1025C00001900D929A95E1F78093C3010E940C103F
:1025D00016E08091C2019091C301891771F1189F93
:1025E000C00111248C539E4F0E94A710882329F10B
:1025F000E091C2011E9FF0011124EC53FE4F408177
:10260000518162817381848195810E94FC0F809148
:10261000C20190E00196877099278093C201D9CFBB
:102620000E94C00F1092C3011092C201E4EFF1E0CA
:1026300086E0DF011D928A95E9F72C960FB6F89493
:10264000DEBF0FBECDBFDF91CF911F9108950895DA
:1026500008950C9428130C9429130E942B13609353
:1026600035027093360280933702909338020C94AF
:10267000A60F0C942D130F931F9300913502109108
:1026800036022091370230913802602B712B822B59
:10269000932B1F910F910C942D130F931F93009167
:1026A00035021091360220913702309138026023B2
:1026B0007123822393231F910F910C942D130F9359
:1026C0001F9300913502109136022091370230910C
:1026D000380260277127822793271F910F910C944E
:1026E0002D130C9428130E94711360933102709380
:1026F000320280933302909334020C94A60F60E070
:1027000070E0CB010C9473130F931F9341E050E0E2
:1027100060E070E08A019B0104C0000F111F221FBE
:10272000331F8A95D2F7C901B8011F910F910C94FC
:1027300073130F931F9341E050E060E070E004C01A
:10274000440F551F661F771F8A95D2F7809131027B
:1027500090913202A0913302B09134028A019B0120
:10276000082B192B2A2B3B2BC901B8011F910F9164
:102770000C9473130F931F9341E050E060E070E0FE
:1027800004C0440F551F661F771F8A95D2F74095E6
:102790005095609570958091310290913202A09190
:1027A0003302B09134028A019B01082319232A23A2
:1027B0003B23C901B8011F910F910C9473130F9320
:1027C0001F9341E050E060E070E004C0440F551FEB
:1027D000661F771F8A95D2F780913102909132025D
:1027E000A0913302B09134028A019B010827192776
:1027F0002A273B27C901B8011F910F910C9473132D
:102800000F931F93009131021091320220913302F5
:1028100030913402602B712B822B932B1F910F91DF
:102820000C9473130F931F93009131021091320295
:102830002091330230913402602371238223932349
:102840001F910F910C9473130F931F9300913102FA
:1028500010913202209133023091340260277127A7
:10286000822793271F910F910C947313089529E0E9
:10287000929F800D1124E82FE695E695E6958770E6
:1028800051E001C0550F8A95EAF785E0E89FF00115
:102890001124E650FE4F20E030E070E04081CB0193
:1028A000022E02C0969587950A94E2F78170819571
:1028B00084278523842781932F5F3F4F253031055F
:1028C00069F7089529E0929F800D1124682F66957D
:1028D00066956695982F977085E0689FB0011124E2
:1028E00040E050E080E0FB01E40FF51FE650FE4FB2
:1028F000208130E0092E02C0369527950A94E2F730
:1029000021703327042E01C0220F0A94EAF7822B8C
:102910004F5F5F4F4530510531F70895BF92CF9219
:10292000DF92EF92FF920F931F93CF93DF938C016F
:10293000C0903102D0903202E0903302F090340225
:102940008091350290913602A0913702B091380201
:10295000C82AD92AEA2AFB2ACFE1D0E0D701C6014A
:102960000C2E04C0B695A795979587950A94D2F733
:1029700080FD04C0219790F7B12C07C0BC2EB80190
:102980008C2F0E948C020197A9F38B2DDF91CF91A0
:102990001F910F91FF90EF90DF90CF90BF9008951F
:1029A000CF93DF93EC010E948E14BE010E948C0233
:1029B000DF91CF9108951F93CF93DF93EB01909117
:1029C000C101992321F0CB010E94D01413C08823A8
:1029D00049F0CB010E948E14182F682FCE010E945F
:1029E000371404C0CB010E946214182FBE01812F3E
:1029F0000E948C02DF91CF911F910895809139023E
:102A000085958595859508958091390287700895FB
:102A100090913902977081E009F480E008959091D7
:102A2000530292FB222720F9281751F080FB92F9DC
:102A30009093530280915202909153020C940E167F
:102A400008958091530282FB882780F991E08927BD
:102A50000C940F1581E00C940F1580E00C940F1569
:102A600080914502089590914502892B80934502FB
:102A70000895809590914502892380934502089599
:102A800010924502089590914402892B809344024C
:102A9000089580959091440289238093440208957B
:102AA00010924402089510924302089580913A02D0
:102AB000089508950C9459150C945A159091530249
:102AC00092FD08C090913A02981721F080933A0243
:102AD0000C945C15089580913A02882329F0109295
:102AE0003A0280E00C945C150895E0910801F091A1
:102AF0000901809145028083E0910801F09109016C
:102B0000908180914402892B8083E0910801F091AB
:102B10000901908180914302892B808380913A0240
:102B2000882381F0E0910801F09109019081892BBF
:102B3000808380910801909109010E94991681116A
:102B40000E946B1580910801909109010C94960ADE
:102B50000C9459159091530292FD10C098E0899FF2
:102B600090011124262B209339020E949913809101
:102B700039028595859585950C94A8150C94991323
:102B80001092390280E00C94A815209139028095AA
:102B9000822380933902982F977041F430E0482FB8
:102BA000082E000C550B2417350721F49091530281
:102BB00092FF07C08595859585950E94BA130C9460
:102BC000C015089580E008956FEF7FEF80E090E0FA
:102BD0000C94FA1E80E090E00E94D61E21E08A3E0E
:102BE0009E4F09F020E0822F089582E090E00C943F
:102BF000CE1E83E090E00C94CE1ECF9384E090E054
:102C00000E94CE1EC82F82E290E00E94CE1E2C2F82
:102C100030E0A901582BCA01CF910895CF93C92F55
:102C2000682F84E090E00E94DC1E6C2F82E290E02E
:102C3000CF910C94DC1EAB01BC018FE090E00C94B2
:102C4000EE1EAB01BC0183E190E00C94EE1E60E04F
:102C500070E0CB010C94211660E070E0CB010E9483
:102C60001B160C9427166AEE7EEF80E090E00E941F
:102C7000FA1E60E082E090E00E94DC1E60E083E0EB
:102C800090E00E94DC1E10923502109236021092E3
:102C900037021092380260E084E090E00E94DC1E6F
:102CA00060E082E290E00E94DC1E60E085E090E05F
:102CB0000E94DC1E60E086E090E00E94DC1E6FEF68
:102CC00087E090E00E94DC1E40E050E0BA0188E01E
:102CD00090E00E94EE1E60E08DE090E00E94DC1E1D
:102CE00040E050E0BA0188E190E00E94EE1E60E012
:102CF00087E190E00E94DC1E40E050E0BA018CE1E8
:102D000090E00E94EE1E60E070E080E290E00E94A1
:102D1000FA1E40E050E0BA0188E190E00E94EE1E09
:102D20000C942C160C943316682F8EE090E00C94C3
:102D3000DC1EFC01329697E080E0915029F0219151
:102D40002223D9F38F5FF9CF0895662349F0FC0160
:102D5000329608962191621729F0E817F907D1F702
:102D600080E0089581E008959C01FC0132969FEF78
:102D700080E04191461789F09F3F19F4411101C04D
:102D8000982F8F5F8630A9F79F3F39F0F901E90F3F
:102D9000F11D97FDFA956283089508959C012A5FBD
:102DA0003F4FFC014281461301C0128201968217F7
:102DB0009307B9F708950C94B4160C94CE160296A6
:102DC00026E0FC0111922A95E9F7089508950C94E4
:102DD000E6160C94E616CF930E94E9160E94FB04B7
:102DE0000E94E716C0E08C2F0E94A104892B29F4D1
:102DF000CF5FC930C1F780E001C081E0CF91089575
:102E00000C94E6160C94001780918002843049F1EE
:102E10000E94021780E00E9470021092470220E494
:102E200088E190E00FB6F894A895809360000FBEFB
:102E30002093600083B7817F846083BF83B7816004
:102E400083BF7894889583B78E7F83BF0FB6F8943D
:102E5000A895809160008861809360001092600066
:102E60000FBE08950C94E6160E94C00F0E948A0AB5
:102E70000E9470020C9432171F920F920FB60F929D
:102E800011248F939F93AF93BF9380914702811139
:102E900013C08091780290917902A0917A02B0914A
:102EA0007B024196A11DB11D809378029093790217
:102EB000A0937A02B0937B02BF91AF919F918F91C3
:102EC0000F900FBE0F901F90189582E084BD93E085
:102ED00095BD9AEF97BD80936E0008952FB7F89433
:102EE0008091780290917902A0917A02B0917B0250
:102EF0002FBF08952FB7F8946091780270917902EE
:102F000080917A0290917B022FBF08959C014FB768
:102F1000F8948091780290917902A0917A02B09110
:102F20007B024FBF821B930B089578941F920F92E0
:102F30000FB60F9211248F939F93AF93BF938091FD
:102F4000780290917902A0917A02B0917B02019669
:102F5000A11DB11D8093780290937902A0937A020B
:102F6000B0937B02BF91AF919F918F910F900FBE55
:102F70000F901F90189581E08093E00080E280938D
:102F8000D8001092C9008FE19EE40197F1F700C0CC
:102F9000000087E090EBDC018093890290938A0225
:102FA000A0938B02B0938C029CE088E10FB6F8945A
:102FB000A895809360000FBE90936000FFCF909320
:102FC0008B0180938A010895809150020895CF93D8
:102FD000DF9300D01F92CDB7DEB79091800294307E
:102FE00019F589837B836A8382E08093E9008FEF00
:102FF0009091E800815095FD06C095ED9A95F1F706
:1030000000008111F5CF8091E80085FF0DC040E000
:1030100050E063E070E0CE0101960E94021A8091B8
:10302000E8008E778093E8000F900F900F90DF916B
:10303000CF910895BC0184E00C94E717BC0183E0B4
:103040000C94E71722E02093E9002FEF3091E8007D
:10305000215035FD06C035ED3A95F1F700002111FC
:10306000F5CF2091E80025FF0BC040E050E066E07E
:1030700070E00E94021A8091E8008E778093E80049
:103080000895CF93DF9321E02093E9002FEF309153
:10309000E800215035FD06C035ED3A95F1F7000006
:1030A0002111F5CF2091E80025FF14C0EC0140E08C
:1030B00050E068E070E00E94021A8091E8008E778C
:1030C0008093E80088E0FE01A8E4B2E001900D9250
:1030D0008A95E1F7DF91CF91089580917F02811168
:1030E00009C00E94931B0E94F01B8091E200846043
:1030F0008093E200089510927F0208950895089544
:10310000089542E061EC81E00E940C1B42E261EC18
:1031100082E00C940C1B80918202833009F460C021
:1031200030F4813071F0823009F499C008958A300A
:1031300009F485C08B3009F46BC0893009F0A7C051
:1031400020C080918102813A09F0A1C08091E800FD
:10315000877F8093E8008091850290918602892B79
:1031600021F468E088E492E003C060E080E090E051
:1031700070E00E944D1A8091E8008B778093E80000
:10318000089580918102813209F081C08091850289
:1031900090918602029708F07AC08091E800877FBC
:1031A0008093E8008091E80082FD05C08091800254
:1031B0008111F8CF6CC02091F3008091F20090E073
:1031C000922B029729F48091F1008B7F813021F4BA
:1031D0008091F100809350028091E8008B7753C07A
:1031E00080918102813A09F052C0809185029091CC
:1031F0008602892B09F04BC08091E800877F80937D
:10320000E8008091E80080FFFCCF8091140136C077
:10321000809181028132D9F5809185029091860258
:10322000892BA9F58091E800877F8093E8000E94B0
:10323000411B80918302809314010C94C00F8091F4
:103240008102813221F58091E800877F8093E80038
:103250000E94411B809184028093510208958091C5
:103260008102813AA1F48091E800877F8093E80091
:103270008091E80080FFFCCF809151028093F100A3
:103280008091E8008E778093E8000C94411B0895AC
:1032900084B7877F84BF0FB6F894A89580916000AB
:1032A000886180936000109260000FBE90E080E81B
:1032B0000FB6F89480936100909361000FBE0E9456
:1032C000060B0E94931B0E94F01B8091E200846019
:1032D0008093E20078940E94851E0E94140B8AE07D
:1032E00091E00E94850A809180028530A9F4809146
:1032F0008002853079F40E94041780917E02882331
:10330000B1F30E94EB16882391F30E94EC190E94FE
:10331000C00FEDCF0E9434170E941A0B0E94100BB1
:10332000E2CF0C949319292F332723303105C9F0AC
:1033300060F42130310581F02230310509F044C0BC
:103340008BE390E028EC31E043C021323105E1F01D
:103350002232310549F138C082E190E023E032E0C9
:1033600037C099278130910549F028F0029761F51F
:10337000E6E9F1E005C0E4ECF1E002C0EEEAF1E0DC
:10338000849190E09F0124C06115710541F0613086
:103390007105D1F489E090E023EF31E019C089E0B4
:1033A00090E02AED31E014C06115710541F0613003
:1033B000710551F48BE790E025E132E009C080E42B
:1033C00090E020E932E004C080E090E020E030E0CE
:1033D000FA0131832083089580E189BD82E189BDAE
:1033E00009B400FEFDCF8091D8008F7D8093D80076
:1033F0008091E00082608093E0008091E00081FD98
:10340000FCCF0895CF92DF92EF92FF920F931F931C
:10341000CF93DF93EC018B017A010E94601B811135
:1034200033C0E114F10439F0F70180819181081B68
:10343000190BC80FD91FC12CD12C0115110519F179
:103440008091E80085FD16C08091E8008E7780931A
:10345000E800E114F10449F0F70180819181C80E80
:10346000D91ED182C08285E00FC00E94601B8823D4
:1034700021F30AC089918093F10001501109FFEFF7
:10348000CF1ADF0ADACF80E0DF91CF911F910F9141
:10349000FF90EF90DF90CF900895209187023091B8
:1034A00088022617370748F06115710539F4209115
:1034B000E8002E772093E80001C0B901FC0120E06C
:1034C0006115710579F1809180028823F1F18530D1
:1034D000F1F18091E80083FD3CC08091E80082FD1D
:1034E0002EC08091E80080FFEBCF2091F300809107
:1034F000F20090E0922B6115710551F08830910532
:1035000038F421912093F100615071090196F3CFB5
:1035100021E0089709F020E08091E8008E77809301
:10352000E800CECF2111CFCF0AC08091800288233E
:1035300061F0853061F08091E80083FD0AC08091E0
:10354000E80082FFF2CF80E0089582E0089583E0F2
:10355000089581E00895209187023091880226170E
:10356000370748F06115710539F42091E8002E778E
:103570002093E80001C0B901FC0120E0611571054C
:1035800091F180918002882309F440C0853009F4CC
:103590003FC08091E80083FD3DC08091E80082FD3E
:1035A0002FC08091E80080FFE9CF2091F300809147
:1035B000F20090E0922B6115710559F08830910569
:1035C00040F424912093F1003196615071090196E5
:1035D000F2CF21E0089709F020E08091E8008E7793
:1035E0008093E800CBCF2111CCCF0AC0809180021C
:1035F000882361F0853061F08091E80083FD0AC086
:103600008091E80082FFF2CF80E0089582E0089583
:1036100083E0089581E00895982F973068F590939E
:10362000E900981739F07091EC002091ED0050916D
:10363000F00003C0242F762F50E021FD02C09F5FD1
:10364000ECCF3091EB003E7F3093EB003091ED00FA
:103650003D7F3093ED003091EB0031603093EB0013
:103660007093EC002093ED005093F0002091EE0059
:1036700027FDE5CF80E008958F708093E90081E019
:1036800008958091810287FF11C08091E80082FD3A
:1036900005C0809180028111F8CF11C08091E800AF
:1036A0008B770BC080918002882349F08091E800DD
:1036B00080FFF8CF8091E8008E778093E80008952E
:1036C0002091E4003091E50095E64091EC00842FD4
:1036D000817040FF23C08091E80080FD1DC0809173
:1036E0008002882399F0853099F08091EB0085FD68
:1036F00011C04091E4005091E5002417350729F3EB
:10370000915011F09A01E1CF84E0089582E008958C
:1037100083E0089581E0089580E008954091E800F5
:1037200042FFDDCF08950E94011C0E94091CE0EEBB
:10373000F0E0808181608083E8EDF0E080818F7728
:10374000808319BCA7EDB0E08C918E7F8C93808133
:103750008F7E808310927F0208950F931F93CF93E3
:10376000DF930E94011C0E94091CC8EDD0E08881F3
:103770008F77888388818068888388818F7D88831C
:1037800019BC1092800210927C0210927E0210925C
:103790007D0200EE10E0F80180818B7F80838881BC
:1037A0008160888342E060E080E00E940C1BE1EED3
:1037B000F0E080818E7F8083E2EEF0E080818160A6
:1037C0008083808188608083F80180818E7F808300
:1037D000888180618883DF91CF911F910F91089537
:1037E000E8EDF0E080818F7E8083E7EDF0E080817E
:1037F0008160808384E082BF81E080937F020C94AB
:10380000AD1BE8EDF0E080818E7F80831092E200B6
:1038100008951092DA001092E10008951F920F921D
:103820000FB60F9211242F933F934F935F936F9393
:103830007F938F939F93AF93BF93EF93FF93809169
:10384000E10082FF0BC08091E20082FF07C08091FF
:10385000E1008B7F8093E1000E94841E8091DA005A
:1038600080FF1FC08091D80080FF1BC08091DA00CC
:103870008E7F8093DA008091D90080FF0DC080E1B7
:1038800089BD82E189BD09B400FEFDCF81E080934E
:1038900080020E946D1805C019BC109280020E941F
:1038A0007B188091E10080FF19C08091E20080FFC9
:1038B00015C08091E2008E7F8093E2008091E2004B
:1038C00080618093E2008091D80080628093D8006C
:1038D00019BC85E0809380020E947F188091E100EE
:1038E00084FF30C08091E20084FF2CC080E189BD5C
:1038F00082E189BD09B400FEFDCF8091D8008F7DA3
:103900008093D8008091E1008F7E8093E1008091C8
:10391000E2008F7E8093E2008091E20081608093DC
:10392000E20080917C02882311F084E007C080913E
:10393000E30087FD02C081E001C083E08093800244
:103940000E9480188091E10083FF29C08091E200ED
:1039500083FF25C08091E100877F8093E10082E0B2
:103960008093800210927C028091E1008E7F809390
:10397000E1008091E2008E7F8093E2008091E2007E
:1039800080618093E20042E060E080E00E940C1BD6
:103990008091F00088608093F0000E947E18FF9173
:1039A000EF91BF91AF919F918F917F916F915F91B7
:1039B0004F913F912F910F900FBE0F901F90189530
:1039C0001F920F920FB60F9211242F933F934F9394
:1039D0005F936F937F938F939F93AF93BF93CF9397
:1039E000DF93EF93FF93C091E900CF708091EC00DB
:1039F000D82FD17080FDD0E81092E9008091F000BE
:103A0000877F8093F00078940E94241D1092E90033
:103A10008091F00088608093F000CD2BCF70C09330
:103A2000E900FF91EF91DF91CF91BF91AF919F910D
:103A30008F917F916F915F914F913F912F910F9057
:103A40000FBE0F901F9018951F93CF93DF93CDB7A4
:103A5000DEB7AA970FB6F894DEBF0FBECDBFE1E880
:103A6000F2E08091F100819322E0E938F207C9F792
:103A70000E948B188091E80083FF2EC18091810203
:103A800090918202492F50E04A30510508F024C13C
:103A9000FA01E059FF4F0C94B41E803821F08238AF
:103AA00009F01AC108C080917D0290917E0299238D
:103AB00089F082600FC0809185028F70873008F096
:103AC0000BC18093E9008091EB0085FB882780F98A
:103AD0001092E9009091E800977F9093E80080931E
:103AE000F1001092F100D1C0282F2D7F09F0F4C011
:103AF000882319F0823061F0EFC080918302813019
:103B000009F0EAC0933009F080E080937E022EC075
:103B10008091830281112AC0809185028F702FEFDE
:103B2000280F263008F0D8C08093E9002091EB00E0
:103B300020FF1CC0933021F48091EB00806214C000
:103B40009091EB0090619093EB0021E030E0A901AF
:103B500002C0440F551F8A95E2F74093EA00109285
:103B6000EA008091EB0088608093EB001092E900FE
:103B70008091E800877F8093E8000E94411BACC0E1
:103B80008111AAC0109183021F778091E300807891
:103B9000812B8093E3008091E800877F8093E80089
:103BA0000E94411B8091E80080FFFCCF8091E300E0
:103BB00080688093E300111102C082E001C083E0BD
:103BC0008093800289C08058823008F085C080913F
:103BD0008302909184028C3D53E0950779F583E050
:103BE0008A838AE289834FB7F894DE01139620E036
:103BF0003EE051E2E32FF0E050935700E49120FFC4
:103C000003C0E295EF703F5FEF708E2F90E0EA30D7
:103C100010F0C79601C0C0968D939D932F5F2431FD
:103C200049F74FBF8091E800877F8093E8006AE200
:103C300070E0CE0101960E944D1A16C06091850277
:103C400070918602AE014F5F5F4F0E949119BC01D7
:103C5000892B09F441C09091E800977F9093E80088
:103C600089819A810E94AB1A8091E8008B778093BA
:103C7000E80032C0803881F58091E800877F80932A
:103C8000E80080917C028093F1008091E8008E77BB
:103C900072CF811121C08091830290918402992773
:103CA0000297D4F48091E800877F8093E8008091A8
:103CB000830280937C020E94411B80917C028111CF
:103CC00006C08091E30087FD02C081E001C084E06E
:103CD000809380020E9481188091E80083FF0AC0CF
:103CE0008091E800877F8093E8008091EB008062FC
:103CF0008093EB00AA960FB6F894DEBF0FBECDBF3F
:103D0000DF91CF911F9108950895CF938091800204
:103D10008823A1F0C091E900CF709091EC00892F29
:103D2000817090FD80E8C82B1092E9008091E80036
:103D300083FD0E94241DCF70C093E900CF910895A8
:103D400097FB072E16F4009407D077FD09D00E9448
:103D5000BA1E07FC05D03EF4909581959F4F0895BB
:103D6000709561957F4F0895EE0FFF1F0590F491B8
:103D7000E02D0994AA1BBB1B51E107C0AA1FBB1F62
:103D8000A617B70710F0A61BB70B881F991F5A95E7
:103D9000A9F780959095BC01CD010895F999FECFC2
:103DA00092BD81BDF89A992780B50895A8E1B0E049
:103DB00042E050E00C94021F262FF999FECF92BDED
:103DC00081BDF89A019700B4021639F01FBA20BDE0
:103DD0000FB6F894FA9AF99A0FBE08950396272F12
:103DE0000E94DD1E0E94DC1E252F0E94DD1E242F56
:103DF0000C94DD1E0196272F0E94DD1E0C94DC1E04
:103E0000DC01CB01FC01F999FECF06C0F2BDE1BD9A
:103E1000F89A319600B40D9241505040B8F7089589
:043E2000F894FFCF44
:103E24002808641E140A321E3B02E41741182218A3
:103E34001E181A1801E200E900EA00B500B600B73E
:103E440000CD008301CC008A019201940121022358
:103E54000224022502260227022A02B300B4006FBC
:103E64000070008182839190946697C634359236AF
:103E7400323331F7F6F5F493E200E900EA00B500D5
:103E8400B600B700CD008301CC008A0192019401F1
:103E94002102230224022502260227022A02B30059
:0A3EA400B4006F00700081828300FB
:00000001FF
